:020000040800F2
:10800000E08200209DD80008F1930008FB9300084F
:10801000059400080F94000819940008000000005F
:108020000000000000000000000000005182000875
:108030002D940008000000008582000847F7000822
:10804000B7D80008B7D80008B7D80008B7D80008D4
:10805000B7D80008B7D800085FEA000883EA00082C
:10806000A7EA0008CBEA0008B7D80008B7D800088C
:10807000B7D80008B7D80008B7D80008B7D80008A4
:10808000B7D80008B7D80008B7D80008B7D8000894
:10809000B7D80008B7D80008B7D8000825EB000803
:1080A000B7D80008B7D80008B7D80008B7D8000874
:1080B000B7D8000831E10008B7D80008B7D80008E1
:1080C000B7D80008B7D80008B7D80008B7D8000854
:1080D000B7D80008813C0108B7D80008B7D8000815
:1080E00081EB0008B7D80008B7D80008B7D8000857
:1080F000B7D80008B7D80008B7D80008B7D8000824
:10810000B7D80008B7D80008B7D80008B7D8000813
:10811000B7D80008B7D800089FE10008B7D8000812
:10812000B7D80008B7D80008B7D80008B7D80008F3
:1081300000F002F800F07CF80AA090E8000C8244FD
:108140008344AAF10107DA4501D100F071F8AFF2DA
:10815000090EBAE80F0013F0010F18BFFB1A43F025
:1081600001031847FC9401001C95010010F8013B25
:108170000A4413F0030408BF10F8014B1D1108BF97
:1081800010F8015B641E05D010F8016B641E01F845
:10819000016BF9D1002D15D010F8014B03F00C0341
:1081A0000C2BA1EB04040ABF10F8013BA4EB8314D1
:1081B000A4EB032405F1010314F8016B5B1E01F825
:1081C000016BF9D5914238BF10F8013BD1D370470C
:1081D0000023002400250026103A28BF78C1FBD8D0
:1081E000520728BF30C148BF0B607047642914F0A4
:1081F000A384752914F0A084632915F08E81732956
:1082000015F09381002070471FB514F0CEFE15F0D5
:108210008BFA04000020002116F004FE401C606070
:108220000020002116F014FEE0601FBD10B510BD47
:1082300015F0B6FC1146FFF7E7FF01F02FF815F037
:1082400027FF03B4FFF7F2FF03BC07F01DFB00009C
:108250001A4B19680868B0E8F00F80F309884FF0EE
:10826000000080F311884EF00D0E704700000000F2
:1082700003480068006880F3088862B600DF00BF2A
:1082800008ED00E0EFF309800C4B1A6820E9F00FCD
:10829000106008B54FF0BF0080F3118806F0AAFF08
:1082A0004FF0000080F31188BDE8084019680868A5
:1082B000B0E8F00F80F30988704700BF98000020F5
:1082C00001B44FF0BF0080F3118801BC704701B4C6
:1082D0004FF0000080F3118801BC70470B49D1F8C2
:1082E00000C04A685CF8043B1068184442F8040B6C
:1082F0008C4528BFA1F1DC0C8A4228BFA1F1DC0229
:10830000C1F800C04A6020F000407047747C002033
:1083100010B501210D2003F0C1FF0121FD4803F03C
:10832000D6FD10BD10B50C2413F050FA204613F002
:108330005AFA10BD86B00024FFF7F4FF00200EF0BB
:1083400059FF002014F0EEF900BFF348807C0128AB
:1083500010D1F148807C00234FF41672EF49009051
:1083600001A80DF098FB044624B12246EB4901A870
:108370000DF0EBFF052007F056FBE6E710B5E848E7
:10838000007860B90120E64908704FF4FA71E548B9
:1083900007F082FD42F21071E34807F07DFD09F01D
:1083A0004AFCE249088008460088002824DD4FF492
:1083B000006007F0ECFDDE49898988420BD101207D
:1083C00007F0BCFFD948008800284BDD09F077FA98
:1083D00009F039FC46E040F6060007F0D8FDD44924
:1083E000898988423ED109F0FEF9D04800880028EA
:1083F00038DD09F028FC35E0CA4807F060FD88B395
:10840000C84807F051FD002409E0C848008800284A
:1084100003DD09F054FA09F016FC601CC4B2282CE4
:10842000F3DB002413E000BFC24800EB8410C24914
:108430000860052007F082FF00BFBC4800880028C4
:1084400003DD09F03CFA09F0FEFB601CC4B20A2C03
:10845000E9DBB54807F033FD20B1B34807F024FD50
:1084600009F013F910BD002402E0322007F0DBFA16
:1084700009F000FB0028F8D100BFFFF77FFFAF48ED
:1084800000780128F9D1601CC4B20A2CF5D100246F
:108490000020AA4908700BF0ECFCEEE70BF0DEFCC4
:1084A00000BFA748007850B1A5480078401EA449F5
:1084B000087008460078012801D10BF0B1FEA148F0
:1084C0000078002809DD9F480078401E9D4908700B
:1084D0000846007808B90BF0CBFB052007F0A3FA9B
:1084E000DFE705F0FBF900BF97480078401C96498C
:1084F000087008460078032803DB0020087005F0A8
:1085000006FA05F0ADFA0A2007F08DFAECE700BF95
:10851000002431E08D4830F8140001282AD17E4A29
:10852000F03212F83410A20002F1960005F058FC67
:10853000794AF03202EBC4025178A20002F19700AE
:1085400005F04EFC744AF03202EBC4029178A200AE
:1085500002F1980005F044FC6F4AF03202EBC402CD
:10856000D178A20002F1990005F03AFC0020774989
:1085700021F81400601CC4B2162CCBDB40F6B830D6
:1085800007F051FAC4E7002405E00020704921F803
:108590001400601CC4B2162CF7DB06F001F900BF12
:1085A00006F04BF90A2007F03EFAF9E700B585B06E
:1085B00005F0E6FB002005F0E7FB574908700120B5
:1085C00005F0E2FB54494870022005F0DDFB5249FA
:1085D0008870032005F0D8FB4F49C8700846007822
:1085E000FF282CD108464078FF2828D108468078FB
:1085F000FF2824D10846C078FF2820D10020087029
:1086000048708870C87008460078014601900020C4
:1086100005F0E6FB4048407801460190012005F056
:10862000DFFB3D48807801460190022005F0D8FB31
:108630003948C07801460190032005F0D1FB05219F
:10864000042005F0CDFB0021052005F0C9FB062024
:1086500005F09AFB3049087108460079FF2802D0DE
:108660000846007948B9FE202B4908710846007970
:1086700001460190062005F0B3FB072005F084FBBE
:10868000254988730846807BFF2802D00846807BF6
:1086900048B92B20204988730846807B0146019009
:1086A000072005F09DFB082005F06EFB1A49C873F2
:1086B0000846C07BFF2802D00846C07B48B9082086
:1086C0001549C8730846C07B01460190082005F093
:1086D00087FB102005F058FB0F494873112005F067
:1086E00053FB0D490874152005F04EFB0A49087329
:1086F0000846007B042808DD012008730846007B3B
:1087000001460190152005F06BFB0348007B05280E
:1087100057D21FE000023000745B0020B009002037
:1087200014000020040000200C000020180100208C
:1087300058350020EC4B00202401002023080020A5
:10874000370800203508002002000020080C002017
:10875000600C0020DFE800F0030D17212B004FF420
:108760001650FE49886007F0A9F80620FC490870F9
:1087700028E04FF49640F949886007F09FF80320FD
:10878000F74908701EE04FF41640F449886007F07E
:1087900095F80220F249087014E04FF46140EF4967
:1087A000886007F08BF80120ED4908700AE04FF46B
:1087B000E130EA49886007F081F80120E849087053
:1087C00000E000BF00BF142005F0DEFAE349887422
:1087D0000846807C022808DD002088740846807CDA
:1087E00001460190142005F0FBFA002004900BE0F4
:1087F00004982830019005F0C7FA02AA0499505451
:108800000498401CC0B2049004980628F0DB9DF840
:108810000800FF284FD19DF80900FF284BD19DF893
:108820000A00FF2847D19DF80B00FF2843D19DF88F
:108830000C00FF283FD19DF80D00FF283BD10420FC
:108840008DF8080002208DF8090035208DF80A0007
:10885000AF208DF80B0000208DF80C0001208DF862
:108860000D009DF8080001460190282005F0B8FA97
:108870009DF8090001460190292005F0B1FA9DF804
:108880000A00014601902A2005F0AAFA9DF80B0083
:10889000014601902B2005F0A3FA9DF80C0001463B
:1088A00001902C2005F09CFA9DF80D0001460190E6
:1088B0002D2005F095FA002004900AE002A9049802
:1088C0000A5CA6481430049942540498401CC0B273
:1088D000049004980628F1DB002004900BE0049833
:1088E0002F30019005F050FA02AA049950540498D0
:1088F000401CC0B2049004980428F0DB9DF80800E6
:10890000FF2833D19DF80900FF282FD19DF80A00D8
:10891000FF282BD19DF80B00FF2827D1C0208DF810
:108920000800A8208DF8090000208DF80A00B72063
:108930008DF80B009DF80800014601902F2005F0EE
:108940004FFA9DF8090001460190302005F048FAE1
:108950009DF80A0001460190312005F041FA9DF88A
:108960000B0001460190322005F03AFA00200490F5
:108970000EE002A904980A5C78481A30049942541F
:108980000499425C113042540498401CC0B20490D7
:1089900004980428EDDB2E2005F0F6F98DF8080088
:1089A0009DF80800012809DD00208DF808009DF8D9
:1089B0000800014601902E2005F012FA9DF80800EB
:1089C000664988770846807F81F82F000020049050
:1089D0000BE004983330019005F0D6F902AA04990F
:1089E00050540498401CC0B2049004980428F0DB52
:1089F0009DF80800FF2830D19DF80900FF282CD1F0
:108A00009DF80A00FF2828D19DF80B00FF2824D1EB
:108A10008DF808008DF809008DF80A0000208DF807
:108A20000B009DF8080001460190332005F0D8F9AD
:108A30009DF8090001460190342005F0D1F99DF818
:108A40000A0001460190352005F0CAF99DF80B0097
:108A500001460190362005F0C3F9002004900EE095
:108A600002A904980A5C3D481F30049942540499B5
:108A7000425C113042540498401CC0B204900498E7
:108A80000428EDDB002004900BE0049837300190BF
:108A900005F07AF902AA049950540498401CC0B217
:108AA000049004980428F0DB9DF80800FF2833D1D7
:108AB0009DF80900FF282FD19DF80A00FF282BD12F
:108AC0009DF80B00FF2827D1C0208DF80800A820B2
:108AD0008DF8090000208DF80A0004208DF80B00A5
:108AE0009DF8080001460190372005F079F99DF8BE
:108AF000090001460190382005F072F99DF80A003E
:108B000001460190392005F06BF99DF80B000146F4
:108B100001903A2005F064F9002004900EE002A9CB
:108B200004980A5C0D482330049942540499425C2D
:108B3000113042540498401CC0B204900498042898
:108B4000EDDB3B2005F020F98DF808009DF80800CA
:108B5000FF280ED100208DF8080003E0745B002090
:108B6000360800209DF80800014601903B2005F0E2
:108B700037F99DF80810FE4880F8271090F8270074
:108B8000FB4981F838003C2005F0FEF88DF808001C
:108B90003D2005F0F9F88DF809009DF80800FF2840
:108BA00011D19DF80900FF280DD14FF4FB70F04959
:108BB00008850846008D000A8DF80800084690F8E0
:108BC00028008DF809009DF809009DF8081040EA7A
:108BD0000120E74908850846008D4887002081F874
:108BE0003C00C874049035E20498800000F5AE7033
:108BF000019005F0C9F88DF808000498800000F293
:108C00005D10019005F0C0F88DF80900049880000F
:108C100000F5AF70019005F0B7F88DF80A000498E0
:108C2000800000F25F10019005F0AEF88DF80B00A7
:108C30009DF80800FF284AD19DF80900FF2846D179
:108C40009DF80A00FF2842D19DF80B00FF283ED175
:108C500000208DF808008DF809008DF80A008DF8C5
:108C60000B009DF8080001900498800000F5AE709C
:108C70000090019905F0B4F89DF80900019004985E
:108C8000800000F25D100090019905F0A9F89DF8B0
:108C90000A0001900498800000F5AF7000900199DF
:108CA00005F09EF89DF80B0001900498800000F2FA
:108CB0005F100090019905F093F80022AD480499E7
:108CC00020F811201638049920F8112016E09DF89C
:108CD00009109DF8080001EB002082B2A548163863
:108CE000049920F811209DF80B009DF80A1000EB64
:108CF000012082B29F48049920F811200498800036
:108D000000F5C470019005F03FF88DF80800049854
:108D1000800000F28910019005F036F88DF8090006
:108D20000498800000F5C570019005F02DF88DF8CD
:108D30000A000498800000F28B10019005F024F8DE
:108D40008DF80B009DF80800FF284BD19DF8090015
:108D5000FF2847D19DF80A00FF2843D19DF80B005A
:108D6000FF283FD100208DF808008DF809008DF80C
:108D70000A008DF80B009DF808000190049880000F
:108D800000F5C4700090019905F02AF89DF80900DB
:108D900001900498800000F289100090019905F07C
:108DA0001FF89DF80A0001900498800000F5C57036
:108DB0000090019905F014F89DF80B0001900498BB
:108DC000800000F28B100090019905F009F8002254
:108DD00068482C30049920F811201638049920F89E
:108DE000112017E09DF809009DF8081000EB012004
:108DF00082B260481630049920F811209DF80B10BB
:108E00009DF80A0001EB002082B25A482C300499E8
:108E100020F811200498800000F5DA70019004F029
:108E2000B3FF8DF808000498800000F2B51001909F
:108E300004F0AAFF8DF809000498800000F5DB70AB
:108E4000019004F0A1FF8DF80A000498800000F260
:108E5000B710019004F098FF8DF80B009DF8080002
:108E6000FF284BD19DF80900FF2847D19DF80A0043
:108E7000FF2843D19DF80B00FF283FD100208DF83B
:108E800008008DF809008DF80A008DF80B009DF898
:108E9000080001900498800000F5DA7000900199B4
:108EA00004F09EFF9DF8090001900498800000F2F4
:108EB000B5100090019904F093FF9DF80A0001900D
:108EC0000498800000F5DB700090019904F088FFA1
:108ED0009DF80B0001900498800000F2B7100090FC
:108EE000019904F07DFF002222485830049920F8AF
:108EF00011201638049920F8112017E09DF8090078
:108F00009DF8081000EB012082B21A484230049903
:108F100020F811209DF80B009DF80A1000EB0120AD
:108F200082B214485830049920F811200498800027
:108F300000F5F070019004F027FF8DF80800049808
:108F4000800000F2E110019004F01EFF8DF809008E
:108F50000498800000F5F170019004F015FF8DF881
:108F60000A000498800000F2E310019004E0000081
:108F7000745B00202A5D002004F006FF8DF80B00D2
:108F80009DF80800FF284AD19DF80900FF2846D126
:108F90009DF80A00FF2842D19DF80B00FF283ED122
:108FA00000208DF808008DF809008DF80A008DF872
:108FB0000B009DF8080001900498800000F5F07007
:108FC0000090019904F00CFF9DF8090001900498AD
:108FD000800000F2E1100090019904F001FF9DF87B
:108FE0000A0001900498800000F5F170009001994A
:108FF00004F0F6FE9DF80B0001900498800000F24A
:10900000E3100090019904F0EBFE0022E14804997E
:1090100020F811201638049920F8112016E09DF848
:1090200009009DF8081000EB012082B2D9481638DB
:10903000049920F811209DF80B009DF80A1000EB10
:10904000012082B2D348049920F811200498401CD2
:10905000C0B2049004980B28FFF6C6AD002004901F
:1090600016E104983E30019004F08EFECA49049A3D
:10907000885408460499405CFF2804D0C6480499E7
:10908000405C14280CDD0522C3480499425404991D
:10909000405C019001F13E000090019904F0A0FEB7
:1090A00004985430019004F06FFEBB491631049AC5
:1090B000885408460499405C14280EDD0022B64905
:1090C000163104980A5408460499405C019001F155
:1090D00054000090019904F083FE04980B2802DAF2
:1090E000049805F070FC049840006A30019004F088
:1090F0004BFE8DF80800049840006B30019004F09E
:1091000043FE8DF809009DF80800FF282CD19DF83A
:109110000900FF2828D14FF4FA729F482C30049997
:1091200020F81120049930F81100000A8DF8080089
:1091300099482C30049910F811008DF809009DF819
:1091400008000190049840006A300090019904F0F2
:1091500047FE9DF809000190049840006B30009094
:10916000019904F03DFE0AE09DF809009DF8081001
:1091700040EA012288482C30049920F811200498F4
:1091800080009630019004F0FFFD83495A31049A23
:1091900001F83200049880009730019004F0F4FD4B
:1091A0007D495A31049A01EBC2014870049880004D
:1091B0009830019004F0E8FD77495A31049A01EBA8
:1091C000C2018870049880009930019004F0DCFDA1
:1091D00071495A31049A01EBC201C8706E485A3085
:1091E000049910F83100FF284ED16B485A30049989
:1091F00000EBC1004078FF2846D167485A300499F7
:1092000000EBC1008078FF283ED163485A300499B2
:1092100000EBC100C078FF2836D100225E485A30EA
:10922000049940F83120049910F831000190880029
:1092300096300090019904F0D3FD57485A300499B4
:1092400000EBC100407801908800973000900199B0
:1092500004F0C6FD50485A30049900EBC1008078F4
:109260000190880098300090019904F0B9FD4A48B7
:109270005A30049900EBC100C07801908800993001
:109280000090019904F0ACFD0498401CC0B2049019
:1092900004981628FFF6E5AE05B000BD1FB53F499E
:1092A000080302F0F9F9FFF733F84FF4A06002F079
:1092B000BBF90121202002F0F1FF482006F064FBF9
:1092C000FFF774F905F0A2FC05F0B4FC4FF47A70D6
:1092D00006F0A9FB05F0B5FC04F058FE04F0D8FE3A
:1092E000002013F096FA2EA013F096FB0020032323
:1092F000CDE900300290034680222CA103902D4836
:1093000005F00AFD00200223CDE90030029003465B
:10931000802229A10390AFF6096005F0FDFC002032
:109320000223CDE9003002900346802225A103905C
:10933000264805F0F1FC00200323CDE9003002901F
:109340000346802222A10390234805F0E5FC00207B
:109350000123CDE900300290034680221FA1039033
:109360001F4805F0D9FC00200423CDE9003002900D
:1093700003464FF490621BA103901C4805F0CCFCFF
:1093800006F052F8002004B010BD00BFC82006F05F
:109390004AFBFBE7AE5D00200A5C0020008000086D
:1093A00054335F7365726965730A0D00494E5055F9
:1093B000545300008785000853544F52454545508B
:1093C000000000004C45443000000000E384000829
:1093D000434F4D4D000000009D8400084E45540051
:1093E000678400084D535450000000003583000886
:1093F00010B516A013F010FB10BD02E016A013F07C
:109400000BFBFBE702E017A013F006FBFBE702E013
:1094100017A013F001FBFBE702E018A013F0FCFA21
:10942000FBE710B519A013F0F7FA10BD10B519A09D
:1094300013F0F2FA10BD10B518A013F0EDFA10BD3C
:1094400010B518A013F0E8FA10BD00004E4D4920E9
:109450006661756C740000006861726420666175F5
:109460006C7400004D656D204661756C74200000C1
:10947000427573204661756C7420000055736167F6
:1094800065204661756C742000000000535643202F
:1094900000000000446562756720000050656E2082
:1094A000000000005379735469636B2000000000D2
:1094B0000CB50020019000906B48006840F48030AB
:1094C0006949086000BF6848006800F400300090F7
:1094D0000198401C0190009818B90198B0F5A06F50
:1094E000F1D16148006810F4003F02D001200090E3
:1094F00001E0002000900098012842D15B480068FC
:1095000040F01000594908600846006820F0030048
:1095100008600846006840F0020008605248406851
:10952000514948600846406848600846406840F431
:10953000806048600846406820F47C104860084617
:10954000406840F4E81048600846006840F08070C9
:10955000086000BF4448006810F0007FFAD042481D
:10956000406820F00300404948600846406840F0E9
:109570000200486000BF3C48406800F00C0008282A
:10958000F9D10CBD10B5FFF793FF10BD10B53648EB
:10959000006840F0010034490860084640683449DA
:1095A00008403149486008460068324908402E4961
:1095B00008600846006820F480200860084640687B
:1095C00020F4FE0048604FF41F008860FFF7DAFFC8
:1095D0004FF000602849086010BD10B50021002040
:1095E0000022214B5B6803F00C0121B1042906D055
:1095F000082928D107E0214B214C236027E01F4B8D
:109600001F4C236023E0184B5B6803F47010164B6B
:109610005B6803F48032022303EB904022B9194BBC
:109620004343174C23600DE00F4B5B6813F4003F7E
:1096300004D0144B4343124C236003E00F4B4343CD
:109640000F4C236003E00D4B0D4C236000BF00BFA7
:10965000054B5B68C3F303130B4CE15C084B1B68C1
:10966000CB40074C236010BD001002400020024098
:109670000000FFF8FFFFF6FE08ED00E000127A00A0
:109680001800002000093D001C00002070B50646AF
:109690000C461546282E45D1FE4890F82A00012890
:1096A00040D1A81D205C0C283CD105F10800205CAD
:1096B000F849087505F10A00215CF648417505F185
:1096C0000C00215CF348817505F10E00215CF14826
:1096D000C17505F11000215CEE48017605F112001C
:1096E000215CEC4841760020EB4908700FE0E94A24
:1096F0001432E94B1B78D15CE74A127802F128005A
:1097000004F06EFBE4480078401CE3490870E2482E
:1097100000780628EBDB0120E04908700020DD49D5
:1097200081F82A0070BD07B584B00498632871DC05
:109730000498012835DCDDE90510401D085C014670
:109740000390002004F04CFBDDE90510001D085CCF
:1097500001460390012004F043FBDDE90510401DA4
:10976000085CCC490870DDE90510001D085CC9499A
:1097700048700846007C40F0010008740846007CF0
:1097800001460390112004F02BFBC248007C002806
:1097900006D00020BF4948730021102004F020FBB0
:1097A0004AE20498032836DCDDE90510401D085C18
:1097B00001460390022004F013FBDDE90510001DB3
:1097C000085C01460390032004F00AFBDDE9051064
:1097D000401D085CAF498870DDE90510001D085C7C
:1097E000AC49C8700846007C40F002000874084686
:1097F000007C01460390112004F0F2FAA548007C99
:109800000028CDD00020A34948730021102004F087
:10981000E7FAC5E71DE2049806280FD1DDE9051037
:10982000401D085C01460390062004F0D9FADDE9EA
:109830000510401D085C97490871B1E70498072896
:109840001BD1DDE90510401D085C0146039007208F
:1098500004F0C6FADDE90510401D085C8D498873E7
:109860000846007C40F0080008740846007C014669
:109870000390112004F0B4FA92E7049808281BD151
:10988000DDE90510401D085C01460390082004F046
:10989000A7FADDE90510401D085C7E49C87308463B
:1098A000007C40F0040008740846007C01460390E8
:1098B000112004F095FA73E704980F2873D1DDE9BD
:1098C0000510401D085C734908730846007B052895
:1098D00063D2DFE800F00316293C4F004FF4165026
:1098E0006C49886005F0EAFFDDE90510401D085C61
:1098F00001460390152004F073FA062068490870A9
:109900004CE04FF496406349886005F0D7FFDDE9ED
:109910000510401D085C01460390152004F060FA14
:1099200003205F49087039E04FF4164059498860B8
:1099300005F0C4FFDDE90510401D085C01460390F9
:10994000152004F04DFA02205549087026E04FF426
:1099500061405049886005F0B1FFDDE90510401D08
:10996000085C01460390152004F03AFA01204C49A6
:10997000087013E04FF4E1304649886005F09EFF1F
:10998000DDE90510401D085C01460390152004F038
:1099900027FA01204249087000BF00BF00BF0AF04B
:1099A0005DFAFDE6FFE70498102806D1DDE9051011
:1099B000401D085C37494873F2E6049815281AD10F
:1099C000DDE90510401D085C28B1DDE90510401DEA
:1099D000085C0128E5D1DDE90510401D085C014661
:1099E0000390142004F0FCF9DDE90510401D085C2B
:1099F00028498874D4E6049828281CDB04982D286C
:109A000019DC0498283827490870DDE90510401D45
:109A1000095C20481430234A12788154DDE905108E
:109A2000401D085C03901F4800782830029003997D
:109A300004F0D6F9B4E604983D2807D1DDE9051015
:109A4000401D085C134981F82F00A9E604983E28C0
:109A500010DB049841280DDC04983E381149087049
:109A6000DDE90510401D095C0A482B300D4A1278CB
:109A7000815495E6049842281BDB0498452818DC9D
:109A80000498423807490870DDE90510401D095C5B
:109A9000004809E0745B00202F000020230800200C
:109AA000360800202C0000203030FE4A1278815405
:109AB00076E6049846280FDB049849280CDC0498C5
:109AC0004638F8490870DDE90510401D095CF64884
:109AD000F44A1278815463E604984A2808D1DDE9F3
:109AE0000510401D085CF049343981F8380057E60C
:109AF00004984B280CD1DDE90510401D0A5C06983E
:109B0000001D085C02EB0020E7493439488747E62E
:109B100004984C287ED1DDE90510401D085CE2491F
:109B2000343981F83C00084690F83C0001288CD17B
:109B3000084690F82F008877084690F8380081F89A
:109B400027000846408F08850846807F014603901D
:109B50002E2004F045F9D448343890F82700014607
:109B600003903B2004F03CF9CF483438008D0012BC
:109B7000014603903C2004F033F9CB48343890F888
:109B80002800014603903D2004F02AF90020C7492F
:109B9000087045E0C4480938C4490978415C113867
:109BA000C24A127881541630C0490978415C113894
:109BB000BE4A127881541530BC490978415C11388D
:109BC000BA4A127881540938B8490978405C039040
:109BD000B64800782F300290039904F001F9B2489A
:109BE0001538B2490978405C0390B04800783330AA
:109BF0000290039904F0F4F8AB481138AB490978A6
:109C0000405C0390A948007837300290039904F033
:109C1000E7F800E011E0A5480078401CA34908706F
:109C2000A24800780428B5DB0120A1490870002073
:109C30009D49343981F83C00FDE304985D28FBD14F
:109C4000DDE90510401D085C9749343981F82A0088
:109C5000F1E30498642878DB04988F2875DC049875
:109C600064389049087008460078019000EBD07085
:109C7000401003908C4878300399405C372836D1E7
:109C800000228948BC30039940F83120039910F82C
:109C900031000190880096300090019904F0A0F8FE
:109CA0008148BC30039900EBC100407801908800E6
:109CB00097300090019904F093F87B48BC300399E9
:109CC00000EBC100807801908800983000900199E5
:109CD00004F086F87448BC30039900EBC100C078EA
:109CE0000190880099300090019904F079F86D484E
:109CF0000078019000EBD07041100198A0EB41007A
:109D0000012820D1684878300399405C37281AD060
:109D1000DDE90510401D0A5C0698001D085C42EA5A
:109D20000020029060488E30039930F81120583896
:109D300030F811100298081A104482B25A488E3036
:109D4000039920F8112076E3FFE70498C8281CDB6C
:109D50000498DD2819DC0498C83852490870DDE9F8
:109D60000510401D095C504862304E4A12788154FB
:109D7000DDE90510401D085C03904A4800783E303C
:109D80000290039904F02CF855E30498E12852DB83
:109D90000498F6284FDC0498E13842490870DDE960
:109DA0000510401D095C404878303E4A12788154C5
:109DB0003C490978405C03903A480078543002905E
:109DC000039904F00DF84FF4FA7137488E30354A94
:109DD000127820F812103349097830F81100000A7F
:109DE0000390304800786A2101EB4000029003990B
:109DF00003F0F6FF2C488E302A49097810F811003C
:109E00000390284800786A2101EB4000401C029032
:109E1000039903F0E5FF2448783022490978405C33
:109E2000372890D11F4800780B288CDA1D4800781D
:109E300004F0C9FDFFE20498FA283EDB0498B0F56F
:109E4000887F3ADA0498801D16490870DDE905100C
:109E5000401D0A5C0698001D085C42EA0021124879
:109E60008E30104A127820F81210DDE90510001D1E
:109E7000085C03900B4800786A2101EB40000290D7
:109E8000039903F0ADFFDDE90510401D085C039068
:109E9000044800786A2101EB4000401C02900399BD
:109EA00008E000002C000020A85B00202F0000200C
:109EB0002308002003F094FFBDE20498B0F5C87FAA
:109EC0007DDB0498B0F5D37F79DA0498A0F5C870EB
:109ED000FD49087008460078039000EBD0704110EF
:109EE0000398A0EB4100F9490870F7480078039007
:109EF00000EBD0704010F6490870F448007868BB59
:109F0000DDE90510401D0A5C0698001D085C42EA68
:109F10000021F048EE4A127820F81210DDE9051011
:109F2000001D085C0390EA4800784FF4AE7101EB25
:109F300080000290039903F053FFDDE90510401DF6
:109F4000085C0390E24800784FF4AE7101EB8000AA
:109F5000401C0290039903F043FF6CE2DDE9051019
:109F6000401D0A5C0698001D085C42EA0021D948A1
:109F70001630D74A127820F81210DDE90510001DBE
:109F8000085C0390D24800784FF4AE7101EB80007A
:109F9000801C0290039903F023FFDDE90510401DAA
:109FA000085C0390CA4800784FF4AE7101EB800062
:109FB000C01C0290039903F013FF3CE2FFE70498F2
:109FC000B0F5D37F7FDB0498B0F5DE7F7BDA0498B1
:109FD000A0F5D370BC49087008460078039000EBE8
:109FE000D07041100398A0EB4100C1B2B748017096
:109FF000B5480078039000EBD0704010B449087069
:10A00000B248007870BBDDE90510401D0A5C069877
:10A01000001D085C42EA0021AE482C30AC4A1278A0
:10A0200020F81210DDE90510001D085C0390A84817
:10A0300000784FF4C47101EB80000290039903F0A3
:10A04000CFFEDDE90510401D085C0390A0480078B4
:10A050004FF4C47101EB8000401C0290039903F09F
:10A06000BFFEE8E1DDE90510401D0A5C0698001D11
:10A07000085C42EA002197484230954A127820F85D
:10A080001210DDE90510001D085C0390904800786F
:10A090004FF4C47101EB8000801C0290039903F01F
:10A0A0009FFEDDE90510401D085C0390884800789C
:10A0B0004FF4C47101EB8000C01C0290039903F0BF
:10A0C0008FFEB8E1FFE70498B0F5DE7F7FDB0498F0
:10A0D000B0F5E97F7BDA0498A0F5DE707A49087064
:10A0E00008460078039000EBD07041100398A0EB75
:10A0F00041007649087074480078039000EBD070F6
:10A100004010734908707148007870BBDDE9051094
:10A11000401D0A5C0698001D085C42EA00216D485B
:10A1200058306B4A127820F81210DDE90510001D36
:10A13000085C0390664800784FF4DA7101EB800008
:10A140000290039903F04CFEDDE90510401D085C08
:10A1500003905F4800784FF4DA7101EB8000401CF7
:10A160000290039903F03CFE65E1FFE7DDE905108D
:10A17000401D0A5C0698001D085C42EA0021554813
:10A180006E30534A127820F81210DDE90510001DD8
:10A19000085C03904E4800784FF4DA7101EB8000C0
:10A1A000801C0290039903F01BFEDDE90510401DA1
:10A1B000085C0390464800784FF4DA7101EB8000A8
:10A1C000C01C0290039903F00BFE34E1FFE70498F2
:10A1D000B0F5E97F77DB0498B0F5F47F73DA049883
:10A1E000A0F5E9703849087008460078039000EB44
:10A1F000D07041100398A0EB4100344908703248F8
:10A200000078039000EBD0704010314908702F485F
:10A21000007870BBDDE90510401D0A5C0698001D42
:10A22000085C42EA00212B485830294A127820F86D
:10A230001210DDE90510001D085C03902448007829
:10A240004FF4DA7101EB80000290039903F0C8FD2E
:10A25000DDE90510401D085C03901D4800784FF4AF
:10A26000DA7101EB8000401C0290039903F0B8FD05
:10A27000E1E0FFE7DDE90510401D0A5C0698001DDE
:10A28000085C42EA002113486E30114A127820F827
:10A290001210DDE90510001D085C03900C480078E1
:10A2A0004FF4DA7101EB8000801C0290039903F0F7
:10A2B00097FDDDE90510401D085C03900448007817
:10A2C0004FF4DA7108E00FE02C0000202D00002090
:10A2D0002E000020145D002001EB8000C01C0290C5
:10A2E000039903F07DFDA6E00498B0F5DE7F7EDBE8
:10A2F0000498B0F5E97F7ADA0498A0F5DE704F494A
:10A30000087008460078039000EBD0704110039865
:10A31000A0EB4100C1B24A48017048480078039060
:10A3200000EBD0704010474908704548007868BB82
:10A33000DDE90510401D0A5C0698001D085C42EA34
:10A34000002141483F4A127820F81210DDE905103B
:10A35000001D085C03903B4800784FF4DA7101EB74
:10A3600080000290039903F03BFDDDE90510401DDC
:10A37000085C0390334800784FF4DA7101EB8000F9
:10A38000401C0290039903F02BFD54E0DDE9051019
:10A39000401D0A5C0698001D085C42EA00212A481C
:10A3A0001630284A127820F81210DDE90510001D39
:10A3B000085C0390234800784FF4DA7101EB8000C9
:10A3C000801C0290039903F00BFDDDE90510401D90
:10A3D000085C03901B4800784FF4DA7101EB8000B1
:10A3E000C01C0290039903F0FBFC24E0FFE70498F3
:10A3F000B0F5487F1FD1DDE90510401D085C134909
:10A40000C8740846C07C012811D10020104908708A
:10A4100009E0FF210E48007803F0E2FC0C480078C8
:10A42000401C0B4908700A480078FF28F1DBFEF752
:10A43000BDF809F01EFD07B000BD00002C00002093
:10A440002D0000202E0000206C5D0020745B002099
:10A450002F0000202DE9F04105460F4614461E4608
:10A46000FE4805801FBB0020FD4908700EE0FC4837
:10A470000078315CF94802880088401CF74B18804E
:10A48000A154F7480078401CF5490870F44800785A
:10A49000F44909788842EADBF04802882146F2480C
:10A4A00012F06DFEED48008809F0C7FC26E0307818
:10A4B0002070707860700020A070E070207106201D
:10A4C00060710020E64908700CE0E54800782844F7
:10A4D000305CE349097829446054E1480078401C25
:10A4E000DF490870DE4800780628EEDBAA1D214609
:10A4F000DE4812F044FEA81DDD490880BDE8F08169
:10A500002DE9F04105460F4614461E4687BB002044
:10A51000D349087012E0D24800782844305CD04912
:10A52000097829446054CE4909782944605C09F0CF
:10A53000A5FECB480078401CC9490870C84800787F
:10A540000628E8DBCB480078C549097829446054DF
:10A55000C9480178C24800782844401C2154C248A8
:10A560002168016061684160082009F066FC27E00D
:10A57000FFE730782070707860700020A070E07085
:10A580002071062060710020B54908700CE0B448C5
:10A5900000782844305CB249097829446054B048B6
:10A5A0000078401CAE490870AD4800780628EEDB04
:10A5B000AA1D2146AD4812F0E2FDA81DAC49088055
:10A5C000BDE8F0812DE9F0470546884616469946D4
:10A5D000DDE90847A1480580785D6055681C395C55
:10A5E00021547006010EA81C2154605D09F046FE3E
:10A5F000691C605C09F042FEA91C605C09F03EFE2B
:10A60000E81C9649088000209549087000F0F3BEC8
:10A6100093480078484499490880084600880328F0
:10A6200023DC002096490870964894490988405CCC
:10A630009549087092480178884802880088401C33
:10A64000864B1880A15490480178184602880088EB
:10A65000401C1880A1548A48007809F00FFE8A48EF
:10A66000007809F00BFE00F0C1BE84480088042881
:10A670001ED1002082490870834908708048017803
:10A68000764802880088401C744B1880A1547E488C
:10A690000178184602880088401C1880A154784828
:10A6A000007809F0EBFD7848007809F0E7FDDAE77B
:10A6B0007248008805281FD10020714908700520C4
:10A6C000714908706E480178644802880088401C0F
:10A6D000624B1880A1546C480178184602880088A3
:10A6E000401C1880A1546648007809F0C7FD6648F0
:10A6F000007809F0C3FDB6E760480088062820D13D
:10A7000000205F4908705F4800795F4908705C4825
:10A710000178524802880088401C504B1880A15490
:10A7200059480178184602880088401C1880A154B6
:10A730005348007809F0A2FD5348007809F09EFDC7
:10A7400091E74E480088072820D100204C49087026
:10A750004C48807B4C490870494801783F48028842
:10A760000088401C3D4B1880A1544748017818468A
:10A7700002880088401C1880A1544148007809F0E4
:10A780007DFD4148007809F079FD6CE73B48008881
:10A79000082820D100203A4908703A48C07B3A493D
:10A7A0000870374801782D4802880088401C2B4BE0
:10A7B0001880A15434480178184602880088401C4B
:10A7C0001880A1542E48007809F058FD2E480078D2
:10A7D00009F054FD47E7294800880F2820D10020C0
:10A7E000274908702748007B2749087024480178CA
:10A7F0001A4802880088401C184B1880A15422482F
:10A800000178184602880088401C1880A1541C4812
:10A81000007809F033FD1C48007809F02FFD22E78D
:10A8200016480088102839D10020154908701548AD
:10A83000407B154908701248017808480288008852
:10A84000401C064B1880A1540F4801781846028816
:10A850000088401C1880A154094817E036000020E9
:10A860002F0000202B080020725900207255002074
:10A87000260800203A080020390800203200002075
:10A8800030000020745B002031000020007809F0C7
:10A89000F5FCFE48007809F0F1FCE4E6FC4800888D
:10A8A000632820D10020FB490870FB48007CF74951
:10A8B0000870F8480178F94802880088401CF74B76
:10A8C0001880A154F1480178184602880088401C7D
:10A8D0001880A154EF48007809F0D0FCEB480078CC
:10A8E00009F0CCFCBFE6EA480088152820D10020FA
:10A8F000E8490870E848807CE4490870E548017838
:10A90000E64802880088401CE44B1880A154DF48C8
:10A910000178184602880088401C1880A154DD4840
:10A92000007809F0ABFCD948007809F0A7FC9AE65A
:10A93000D748008828282CDBD54800882D2828DC1B
:10A94000D34800882838D64908800020D1490870AB
:10A95000D1481430D2490988405CCC490870CD48B0
:10A960000178CE4802880088401CCC4B1880A15446
:10A97000C6480178184602880088401C1880A154F7
:10A98000C448007809F07AFCC048007809F076FCE9
:10A9900069E6BF4800882E2820D10020BD490870F4
:10A9A000BD48807FB9490870BA480178BB48028821
:10A9B0000088401CB94B1880A154B448017818464F
:10A9C00002880088401C1880A154B248007809F021
:10A9D00055FCAE48007809F051FC44E6AC480088CC
:10A9E0002F282CDBAA480088322828DCA8480088B9
:10A9F0002F38AB4908800020A6490870A6481A30B5
:10AA0000A7490988405CA1490870A2480178A34879
:10AA100002880088401CA14B1880A1549B480178F3
:10AA2000184602880088401C1880A1549948007874
:10AA300009F024FC9548007809F020FC13E69448BE
:10AA4000008833282CDB92480088362828DC904880
:10AA5000008833389249088000208E4908708E485B
:10AA60001F308F490988405C8849087089480178FF
:10AA70008A4802880088401C884B1880A15483486B
:10AA80000178184602880088401C1880A15481482B
:10AA9000007809F0F3FB7D48007809F0EFFBE2E570
:10AAA0007B48008837282CDB794800883A2828DC46
:10AAB0007748008837387A4908800020754908703F
:10AAC0007548233076490988405C704908707148A0
:10AAD0000178724802880088401C704B1880A1548D
:10AAE0006A480178184602880088401C1880A154E2
:10AAF0006848007809F0C2FB6448007809F0BEFBA2
:10AB0000B1E5634800883B2821D1002061490870E5
:10AB1000614890F827005D4908705E4801785F48F9
:10AB200002880088401C5D4B1880A154574801786A
:10AB3000184602880088401C1880A15455480078A7
:10AB400009F09CFB5148007809F098FB8BE55048D0
:10AB500000883C2823D15048008D000A4D490870D8
:10AB60004D4890F82800494908704A4801784B48F8
:10AB700002880088401C494B1880A1544348017842
:10AB8000184602880088401C1880A154414800786B
:10AB900009F074FB3D48007809F070FB63E53C4820
:10ABA00000883D2821D100203A4908703A4890F8A1
:10ABB0002F003649087037480178384802880088E5
:10ABC000401C364B1880A154304801781846028842
:10ABD0000088401C1880A1542E48007809F04EFBD4
:10ABE0002A48007809F04AFB3DE5294800883E28BC
:10ABF0002CDB27480088412828DC254800883E387F
:10AC00002749088000202349087023482B30244915
:10AC10000988405C1D4908701E4801781F48028859
:10AC20000088401C1D4B1880A15418480178184614
:10AC300002880088401C1880A1541648007809F04A
:10AC40001DFB1248007809F019FBCFE3104800887B
:10AC5000422839DB0E480088452835DC0C4800883E
:10AC600042380F49088000200A4908700A483030ED
:10AC70000B490988405C0549087006480178074877
:10AC800002880088401C054B18800BE03100002032
:10AC90003200002030000020745B002036000020CD
:10ACA0002C000020A154FD48017818460288008835
:10ACB000401C1880A154FA48007809F0DFFAF748E0
:10ACC000007809F0DBFA91E3F648008846282BDB90
:10ACD000F4480088492827DCF24800884638F249C1
:10ACE00008800020EE490870F048EF490988405C70
:10ACF000EA490870EA480178ED4802880088401C5B
:10AD0000EB4B1880A154E54801781846028800886A
:10AD1000401C1880A154E248007809F0AFFADF48DF
:10AD2000007809F0ABFA61E3DE4800884A2822D1B6
:10AD30000020DB490870DD48343890F83800D749E6
:10AD40000870D7480178DA4802880088401CD84B40
:10AD50001880A154D1480178184602880088401C08
:10AD60001880A154CE48007809F088FACB480078C2
:10AD700009F084FA3AE3CB4800884B2825D1CB4828
:10AD80003438408F000AC6490870C848343890F8F3
:10AD90003A00C2490870C2480178C5480288008854
:10ADA000401CC34B1880A154BC4801781846028847
:10ADB0000088401C1880A154B948007809F05EFA58
:10ADC000B648007809F05AFA10E3B64800884C28D3
:10ADD00022D10020B2490870B448343890F83C00C1
:10ADE000AE490870AE480178B14802880088401C1E
:10ADF000AF4B1880A154A9480178184602880088F2
:10AE0000401C1880A154A648007809F037FAA348DE
:10AE1000007809F033FAE9E2A24800885D2822D1DF
:10AE200000209F490870A148343890F82A009B49B7
:10AE300008709B4801789E4802880088401C9C4B03
:10AE40001880A15495480178184602880088401C53
:10AE50001880A1549248007809F010FA8F480078C1
:10AE600009F00CFAC2E28F48008864287EDB8D4826
:10AE700000888F287ADC8B48008864388A490880EB
:10AE8000088800EBD0714A1088497831895C3729ED
:10AE900047D1854A118801EBD1725310834ABC32E5
:10AEA00002EBC302804B188800EBD0735B10A0EB61
:10AEB00043034FF0030CACEB4303D25C784B1A70A6
:10AEC000794A118801EBD1725310784ABC3202EBF7
:10AED000C302754B188800EBD0735B10A0EB4303E3
:10AEE0004FF0020CACEB4303D25C6C4B1A706C4815
:10AEF00001786F4802880088401C6D4B1880A1546F
:10AF000066480178184602880088401C1880A154C1
:10AF10006348007809F0B2F96048007809F0AEF9AA
:10AF200064E26149088800EBD0714910A0EB41014F
:10AF3000012932D15C49088800EBD0714A105B4985
:10AF4000363131F81210090A554A117056490888ED
:10AF500000EBD0714A105549363111F812104F4AA2
:10AF600011704F4801785248028800E034E00088B0
:10AF7000401C4F4B1880A15448480178184602885D
:10AF80000088401C1880A1544548007809F076F9E3
:10AF90004248007809F072F928E200204049087020
:10AFA0003E4908703E480178414802880088401CAC
:10AFB0003F4B1880A1543948017818460288008810
:10AFC000401C1880A1543648007809F057F93348DE
:10AFD000007809F053F909E232480088C8282CDBD0
:10AFE00030480088DD2828DC2E480088C8382E49E3
:10AFF000088000202A4908702C4862302A490988B4
:10B00000405C264908702648027829480188008853
:10B01000401C274B1880625420480178184602884B
:10B020000088401C1880A1541D48007809F026F9BA
:10B030001A48007809F022F9D8E11A480088E12876
:10B0400038DB18480088F62834DC16480088E138D8
:10B0500015490880002012490870144878301249B8
:10B060000988405C0D4908700D4801781048028835
:10B070000088401C0E4B1880A154084801781846DF
:10B0800002880088401C1880A1540548007809F007
:10B09000F5F80248007809F0F1F8A7E13100002046
:10B0A00030000020320000202C000020A85B00208F
:10B0B00036000020FE480088FA2831DBFC48008872
:10B0C000B0F5887F2CDAFA480088FA38F949088008
:10B0D000F948098830F81100000AF8490870F64864
:10B0E000F449098810F81100F5490870F34801780F
:10B0F000F44802880088401CF24B1880A154F048A4
:10B100000178184602880088401C1880A154EB483A
:10B11000007809F0B3F8EA48007809F0AFF865E183
:10B12000E3480088B0F5C87F34DBE1480088B0F51B
:10B13000D37F2FDADE480088A0F5C870DD4908808B
:10B14000088800EBD0714910A0EB4101DE4A118064
:10B15000D849088800EBD0714910DC4A1180DA48E0
:10B16000008858B90020D5490870D348DE30114610
:10B17000098810F81100D249087037E10020CF4942
:10B180000870CD48F430D149098810F81100CC4935
:10B1900008702BE1C6480088B0F5D37F33DBC44884
:10B1A0000088B0F5DE7F2EDAC1480088A0F5D370A4
:10B1B000C0490880088800EBD0714910A0EB41011C
:10B1C000C14A1180BB49088800EBD0714910BF4AC1
:10B1D0001180BD48008850B90020B8490870BC48AB
:10B1E0001146098810F81100B5490870FEE00020EA
:10B1F000B2490870B6481630B449098810F81100F1
:10B20000AF490870F2E0AA480088B0F5DE7F34DB71
:10B21000A7480088B0F5E97F2FDAA5480088A0F597
:10B22000DE70A4490880088800EBD0714910A0EBBB
:10B230004101A54A11809F49088800EBD07149104F
:10B24000A24A1180A048008858B900209B49087084
:10B250009F482C301146098810F811009849087051
:10B26000C4E0002095490870994842309749098800
:10B2700010F8110092490870B8E08D480088B0F5C8
:10B28000E97F34DB8A480088B0F5F47F2FDA8848FC
:10B290000088A0F5E97087490880088800EBD07124
:10B2A0004910A0EB4101884A11808249088800EBCF
:10B2B000D0714910854A11808348008858B9002010
:10B2C0007E490870824858301146098810F81100EC
:10B2D0007B4908708AE00020784908707C486E300D
:10B2E0007A49098810F81100754908707EE07048A5
:10B2F0000088B0F5F47F34DB6D480088B0F5FF7F3F
:10B300002FDA6B480088A0F5F4706A490880088835
:10B3100000EBD0714910A0EB41016B4A11806549E7
:10B32000088800EBD0714910684A1180664800888F
:10B3300058B9002061490870654884301146098871
:10B3400010F811005E49087050E000205B49087059
:10B350005F489A305D49098810F811005849087013
:10B3600044E053480088B0F5487F21D1002053497C
:10B3700008705148C238C07C514908704F48017864
:10B38000504802880088401C4E4B1880A1544C48FD
:10B390000178184602880088401C1880A15447484C
:10B3A000007808F06BFF4648007808F067FF1DE062
:10B3B00000204249087042490870404801784148DD
:10B3C00002880088401C3F4B1880A1543C480178FB
:10B3D000184602880088401C1880A154374800781D
:10B3E00008F04CFF3648007808F048FF39480078EC
:10B3F000401C3849087037480078B042FFF608A969
:10B40000354800782D490870344800782C49087078
:10B410002A4801782B4802880088401C294B188054
:10B42000A15427480178184602880088401C1880DB
:10B43000A154B8F1000F0AD11846028821462848C5
:10B4400011F09DFE1F48008808F0F7FC1DE03878D9
:10B450002070787860700020A070E070032000EB0E
:10B46000460000122071032000EB460060710320AB
:10B4700000EB4600421921461A4811F080FE0320D5
:10B4800000EB4600284418490880BDE8F08770B5F5
:10B4900004460D460B480480285D0949087008469B
:10B4A0000178084802880088401C064B18801DE07F
:10B4B000320000202C000020365C002030000020EC
:10B4C0003100002036000020340000202E00002033
:10B4D000405D00202F0000203A080020390800209D
:10B4E00072590020725500202608002048488154D7
:10B4F0004848007808F0C2FE601C285C4549087086
:10B5000008460178444802880088401C424B188055
:10B510003F4881543F48007808F0B0FE3F4800792A
:10B520003C490870084602783B4801880088401C66
:10B53000394B1880364842543648007808F09EFE51
:10B540003648007833490870084601783248028846
:10B550000088401C304B18802D4881542D480078BD
:10B5600008F08CFE2D4840782A4908700846027879
:10B57000294801880088401C274B188024484254E1
:10B580002448007808F07AFE244880782149087021
:10B5900008460278204801880088401C1E4B18800D
:10B5A0001B4842541B48007808F068FE1B48C078CE
:10B5B0001849087008460278174801880088401C1E
:10B5C000154B1880124842541248007808F056FE75
:10B5D000134800780F490870084601780E48028821
:10B5E0000088401C0C4B1880094881540D48007895
:10B5F0000849087008460278184601880088401CEF
:10B600001880034842541846008808F016FC70BDA4
:10B61000725900203100002036000020745B0020A9
:10B620003A0800203908002031490143314A1160AD
:10B63000704770B5002100230F22C4780CB32D4C45
:10B64000246804F4E064C4F5E064210AC1F1040351
:10B65000CA40447804FA03F1847814402143090174
:10B66000254C0678A155047804F01F050124AC4050
:10B6700005786D114FF0E02606EB8505C5F8004111
:10B6800009E0047804F01F050124AC401B4D067846
:10B69000761145F8264070BD194A0A400243154B01
:10B6A0001B1F1A60704739B1124A121D12680243FB
:10B6B000104B1B1D1A6006E00E4A121D12688243D1
:10B6C0000C4B1B1D1A607047042808D14FF0E02175
:10B6D000096941F004014FF0E022116107E04FF0E9
:10B6E000E021096921F004014FF0E0221161704767
:10B6F0000000FA050CED00E000E400E080E100E06D
:10B7000080FFFF1F10B50446FA48844208D101218A
:10B71000401500F0DDFD0021601500F0D9FD17E0B7
:10B72000F548844208D10121001500F0D1FD002127
:10B73000201500F0CDFD0BE0F048844208D1012136
:10B74000C80300F0C5FD00214FF4004000F0C0FD2B
:10B7500010BD30B50246002000235068E84C204060
:10B760000D790C6844EA0524204350609068E54C4C
:10B770002040D1E902542C434D7944EA450420434A
:10B780009060D06A20F470000C7C641EE4B2234305
:10B7900040EA0350D06230BD002101600171417167
:10B7A0008160C16001210174704721B1826842F05B
:10B7B0000102826003E0826822F001028260704729
:10B7C00021B1826842F48072826003E0826822F4D0
:10B7D00080728260704710B50023CBB21AB1446802
:10B7E0001C43446002E044689C43446010BD81688F
:10B7F00041F0080181607047014600208A6812F01C
:10B80000080F01D0012000E000207047816841F05E
:10B81000040181607047014600208A6812F0040F1D
:10B8200001D0012000E00020704721B1826842F47D
:10B83000A002826003E0826822F4A0028260704766
:10B84000014600208A6812F4800F01D0012000E038
:10B850000020704710B50A4600210023416821F4FA
:10B860006041531E41EA4331416010BD21B142683D
:10B8700042F40062426003E0426822F400624260E7
:10B880007047F0B504460D4600200021092D11DD5A
:10B89000E068A5F10A0606EB4607072606FA07F157
:10B8A0008843A5F10A0606EB460603FA06F10843AB
:10B8B000E0600CE0206905EB4507072606FA07F172
:10B8C000884305EB450603FA06F108432061072A81
:10B8D0000FDA606B561E06EB86071F2606FA07F185
:10B8E0008843561E06EB860605FA06F10843606398
:10B8F00022E00D2A0FDA206BD61F06EB86071F26E3
:10B9000006FA07F18843D61F06EB860605FA06F10C
:10B910000843206310E0E06AA2F10D0606EB8607FB
:10B920001F2606FA07F18843A2F10D0606EB8606EC
:10B9300005FA06F10843E062F0BD21B1826842F4E5
:10B940008012826003E0826822F480128260704775
:10B950000146C86C80B2704766484C30006870473A
:10B9600021B1426842F48062426003E0426822F4FE
:10B9700080624260704721B1426842F48052426066
:10B9800003E0426822F48052426070470A46002178
:10B99000816821F4E04111438160704721B18268E0
:10B9A00042F40042826003E0826822F40042826036
:10B9B000704721B1826842F40212826003E082681B
:10B9C00022F4021282607047014600208A6812F455
:10B9D000001F01D0012000E000207047F0B50446B0
:10B9E0001546002000220026092911DDE068A1F19A
:10B9F0000A0707EB470C072707FA0CF29043A1F15F
:10BA00000A0707EB470703FA07F21043E0600CE070
:10BA1000206901EB410C072707FA0CF2904301EB78
:10BA2000410703FA07F210432061A06BC0F30156EF
:10BA3000EF1C06F1010CA7EB0C0707EB870C1F2787
:10BA400007FA0CF29043EF1C06F1010CA7EB0C0770
:10BA500007EB870701FA07F21043A063F0BD10B5AA
:10BA60000A4600210023816B21F44011531E41EA54
:10BA70000351816310BD08B5002300930090009B23
:10BA80000B440093009B1A6008BD08B502460020D5
:10BA90000090009201F12800009B1844009000984B
:10BAA000006880B208BD0A4600214168164B194063
:10BAB0001143416070474162826270470A4600212B
:10BAC000416821F01F0111434160704740B10949AD
:10BAD0000831096841F40001064A0832116007E0A4
:10BAE00004490831096821F40001024A0832116052
:10BAF000704700000024014000280140003C014044
:10BB0000FFFEF0FFFDF7F1FFFFFD3FFF02460020C3
:10BB100013680B4201D0012000E000207047CA43A7
:10BB20000260704770B502460020002300240B120B
:10BB30005568CEB205EA060415681D4202D00CB164
:10BB4000012000E0002070BD00220A12D3430360F0
:10BB500070470000002044490860091D0860091D65
:10BB60000860091D086041483F491431086070476A
:10BB700000213D498279002A3AD00A4612680368BA
:10BB80009A430B461A600A1D126803689A430B1DFC
:10BB90001A60027911440A6803681A430A60324A3B
:10BBA0000832126803689A432F4B08331A601A1D33
:10BBB000126803689A432C4B0C331A604279102A9E
:10BBC0000ED11A1F126803681A43274B08331A60F4
:10BBD0001A1D126803681A43234B0C331A600DE0D8
:10BBE0002149427911440A6803681A430A6005E052
:10BBF000027911440A6803689A430A607047002179
:10BC0000016001710C214171002181717047164959
:10BC1000103109680143144A10321160704701461F
:10BC20000020114A143212680A4201D0012000E0BB
:10BC3000002070470C49143108607047014600200D
:10BC40000022094B1B6803EA0102074B14331B68EF
:10BC50000B4202D00AB1012000E0002070470249E7
:10BC6000143108607047000000040140FFFF0F001E
:10BC700010B50446CA48844208D10121042000F0CE
:10BC800027FB0021042000F023FB46E0C548844246
:10BC900008D10121082000F01BFB0021082000F042
:10BCA00017FB3AE0C048844208D10121102000F07F
:10BCB0000FFB0021102000F00BFB2EE0BB4884425C
:10BCC00008D10121202000F003FB0021202000F0FA
:10BCD000FFFA22E0B648844208D10121402000F05A
:10BCE000F7FA0021402000F0F3FA16E0B148844250
:10BCF00008D10121802000F0EBFA0021802000F023
:10BD0000E7FA0AE0AC48844207D10121801500F02F
:10BD1000DFFA0021A01500F0DBFA10BD10B50121FB
:10BD2000084600F0D5FA0021012000F0D1FA10BD3C
:10BD30002DE9F041024600250026002000230024C2
:10BD4000002791F803C00CF00F0591F803C01CF018
:10BD5000100F03D091F802C04CEA050591F800C01D
:10BD6000BCF1000F31D0146800202BE04FF0010C23
:10BD70000CFA00F3B1F800C00CEA03069E4220D191
:10BD800083004FF00F0C0CFA03F7BC4305FA03FCD9
:10BD90004CEA040491F803C0BCF1280F06D14FF01F
:10BDA000010C0CFA00FCC2F814C00AE091F803C0C0
:10BDB000BCF1480F05D14FF0010C0CFA00FCC2F8A1
:10BDC00010C0401C0828D1D31460B1F800C0BCF1E9
:10BDD000FF0F34DD546800202EE000F1080C4FF016
:10BDE000010808FA0CF3B1F800C00CEA03069E4201
:10BDF00021D183004FF00F0C0CFA03F7BC4305FA76
:10BE000003FC4CEA040491F803C0BCF1280F05D1EF
:10BE100000F1080C08FA0CF8C2F8148091F803C07D
:10BE2000BCF1480F07D100F1080C4FF0010808FAE7
:10BE30000CF8C2F81080401C0828CED35460BDE82E
:10BE4000F0814FF6FF710180022181700421C170E1
:10BE500070470246002093680B4201D0012000E0A9
:10BE6000002070470146886880B270470246002073
:10BE7000D3680B4201D0012000E00020704701464A
:10BE8000C86880B2704701617047416170470AB16C
:10BE9000016100E041617047C16070474FF480323A
:10BEA0000A438261816182618269826970470246C8
:10BEB0000020424B18684FF68073184040EA021089
:10BEC00008433E4B186070473D49C8617047F0B564
:10BED0000A46002300240021002500F00046B6F1A8
:10BEE000004F02D1354EF16901E0344E7168C0F364
:10BEF000034583B200F44016B6F5401F08D121F087
:10BF000070612E4E766826F070662C4F7E6012E0CF
:10BF100000F48016B6F5801F06D1032606FA05F454
:10BF2000A14341F0706106E0460D360103FA06F6C2
:10BF3000B14341F0706122B1460D360103FA06F6B5
:10BF4000314300F00046B6F1004F02D11B4EF161C3
:10BF500001E01A4E7160F0BD30B500228B071C0F56
:10BF60000F2303FA04F2154B08338C1053F82430D6
:10BF70009343124C08348D1044F8253023468C101E
:10BF800053F824308C07240F00FA04F423430B4C9D
:10BF900008348D1044F8253030BD0A4908607047D8
:10BFA00000080140000C0140001001400014014055
:10BFB00000180140001C0140002001400000014029
:10BFC00000002042DC002042DD48006840F0010013
:10BFD000DB49086008464068DA490840D8494860AB
:10BFE00008460068D8490840D549086008460068F6
:10BFF00020F4802008600846406820F4FE00486075
:10C000004FF41F0088607047CD49096821F48031E2
:10C01000CB4A11601146096821F480211160B0F506
:10C02000803F03D0B0F5802F0ED106E0C4490968E7
:10C0300041F48031C24A116007E0C149096841F406
:10C04000A021BF4A116000E000BF00BF704710B5DB
:10C0500001460022002300204A11012A02D1B84CD7
:10C06000236806E0022A02D1B54C236A01E0B44CF1
:10C07000636A01F01F02012494401C4201D0012098
:10C0800000E0002010BD38B50020009000240025FD
:10C0900000BF3120FFF7DBFF05460098401C0090F1
:10C0A0000098B0F5A06F01D0002DF2D03120FFF73D
:10C0B000CEFF08B1012400E00024204638BD01462F
:10C0C00000209F4A106820F0F80040EAC10010608C
:10C0D00070479E490860704702460020984B586898
:10C0E00020F47C1042EA01031843954B58607047D6
:10C0F00096490866704701460020914A506820F032
:10C1000003000843506070478D48406800F00C0001
:10C110007047014600208A4A506820F0F00008432A
:10C120005060704701460020854A506820F4E06066
:10C1300008435060704701460020814A506820F44F
:10C14000605040EAC1005060704729B17C4A527A81
:10C1500002437B4B5A7204E0794A527A8243784B0D
:10C160005A7270477A490860704701460020744A45
:10C17000506820F440400843506070470021754AE1
:10C1800011706F4A82F82010012802D0042808D1CB
:10C1900003E001216F4A117004E005216D4A11701E
:10C1A00000E000BF00BF70476B49086070476449FA
:10C1B000096A0143624A116270476749443908605D
:10C1C000704730B500210022002400235C4D6D68CB
:10C1D00005F00C0121B1042905D0082923D105E07F
:10C1E0005E4D056022E05D4D05601FE0544D6D68B9
:10C1F00005F47012524D6D6805F48034022505EB8C
:10C2000092421CB9564D554305600BE04C4D6D688C
:10C2100015F4003F03D0524D5543056002E04F4DE9
:10C220005543056002E04D4D056000BF00BF444D21
:10C230006D6805F0F00109094A4D6B5C0568DD4049
:10C2400045603F4D6D6805F4E061090A454D6B5C42
:10C250004568DD4085603A4D6D6805F46051C90A56
:10C26000404D6B5C4568DD40C560354D6D6805F43B
:10C270004041890B3C4D6B5CC568B5FBF3F505612E
:10C2800030BD29B12E4A526902432D4B5A6104E058
:10C290002B4A526982432A4B5A61704729B1284A76
:10C2A00092690243264B9A6104E0254A92698243CF
:10C2B000234B9A61704729B1214AD2690243204B2E
:10C2C000DA6104E01E4AD26982431D4BDA6170478D
:10C2D00029B11B4AD2680243194BDA6004E0184ABC
:10C2E000D2688243164BDA60704729B1144A12694A
:10C2F0000243134B1A6104E0114A12698243104B46
:10C300001A61704714494039086070470F49C86482
:10C3100070470B49C87170470948406A40F0807007
:10C3200007494862704701460020054A92680A4260
:10C3300001D0012000E00020704701498872704759
:10C34000001002400000FFF8FFFFF6FE000042422E
:10C35000D8004242201002408004424200127A007B
:10C3600000093D00380000204800002010B50446B8
:10C37000BE48844208D101218014FFF7A9FF0021A3
:10C38000A014FFF7A5FF16E0B948844208D10121A7
:10C390000014FFF7AAFF00212014FFF7A6FF0AE010
:10C3A000B448844207D10121C013FFF79EFF00214A
:10C3B000E013FFF79AFF10BD10B50022028802F4C7
:10C3C00041520B884C8823438C882343CC882343D9
:10C3D0000C8923434C8923438C892343CC892343F1
:10C3E0001A430280838B4FF2FF74234083830B8AAE
:10C3F000038210BD2DE9F04F85B005460C464FF085
:10C40000000902274FF000084FF0010B0026B2464A
:10C41000A88B4FF240010840A88302202884B5F879
:10C420001C90A068022801D100BF38E0A08810B994
:10C430004FF0010B01E04FF0020B8D48854200D117
:10C4400000E000BF6846FFF7BCFEDDF800A0E08812
:10C45000B0F5007F0AD14FEA1A2000EB80004000BF
:10C46000A168B0FBF1F0401D86B20BE04FEA4B1023
:10C47000BAFBF0F000EB80004000A168B0FBF1F0E7
:10C48000401D86B20A20B6FBF0F606F00108A6EBC6
:10C490000800C0F34F074FF6FF7000EA0828022F8C
:10C4A00001DBFF2F02DD02274FF00008E08840EAA1
:10C4B000080038432884A088A1890843618808437C
:10C4C0002188084340F4006040EA0909A5F81C905F
:10C4D00005B0BDE8F08F0021018041808180C180DE
:10C4E000018141818181C181072101827047002141
:10C4F000018041808180C180022181600021818191
:10C50000704721B1028842F04002028004E00288B4
:10C510004FF6BF731A400280704721B1828B42F4FC
:10C520008062828304E0828B4FF6FF331A4082835D
:10C53000704730B5002400230C110125A540ABB293
:10C540001AB185881D43858002E085889D438580DA
:10C5500030BD1AB183880B43838002E083888B430C
:10C560008380704781817047014688897047A1F5B3
:10C570007E42FF3A04D0028842F48072028004E0D6
:10C5800002884FF6FF631A400280704721B182880B
:10C5900042F00402828004E082884FF6FB731A4066
:10C5A0008280704702884FF2FF731A40028002882F
:10C5B0000A4302807047018841F48051018070472E
:10C5C00021B1028842F40052028004E002884DF654
:10C5D000FF731A400280704702460020012901D0F3
:10C5E000108B00E0908A70470146088A7047B1F5C9
:10C5F000804F04D1028842F48042028004E0028825
:10C600004BF6FF731A4002807047024600201389E0
:10C610000B4201D0012000E000207047CA43028194
:10C620007047F0B50246002000240023002501F0E9
:10C630000F070126BE40B4B20B1101269E40B3B2D3
:10C64000968806EA03051689264202D00DB101201C
:10C6500000E00020F0BD10B5002201F00F0401231E
:10C66000A3409AB2D343038110BD000000300140C3
:10C6700000380040003C004010B50446FE488442AB
:10C6800008D10121C014FFF723FE0021E014FFF7B9
:10C690001FFEC4E0B4F1804F08D101210846FFF726
:10C6A00024FE00210120FFF720FEB8E0F348844279
:10C6B00008D101210220FFF718FE00210220FFF718
:10C6C00014FEACE0EE48844208D101210420FFF7BB
:10C6D0000CFE00210420FFF708FEA0E0E948844298
:10C6E00008D101210820FFF700FE00210820FFF7F4
:10C6F000FCFD94E0E448844208D101211020FFF7BA
:10C70000F4FD00211020FFF7F0FD88E0DF488442AF
:10C7100008D101212020FFF7E8FD00212020FFF7AC
:10C72000E4FD7CE0DA48844208D101214014FFF79F
:10C73000CFFD00216014FFF7CBFD70E0D5488442A7
:10C7400009D10121C804FFF7C3FD00214FF40020E7
:10C75000FFF7BEFD63E0D048844209D101210805FE
:10C76000FFF7B6FD00214FF48010FFF7B1FD56E052
:10C77000CA48844209D101214805FFF7A9FD0021DB
:10C780004FF40010FFF7A4FD49E0C548844208D1EA
:10C7900001214020FFF7A9FD00214020FFF7A5FD62
:10C7A0003DE0C048844208D101218020FFF79DFD73
:10C7B00000218020FFF799FD31E0BB48844208D179
:10C7C00001218015FFF791FD0021A015FFF78DFDD8
:10C7D00025E0B648844209D101210804FFF778FD1D
:10C7E00000214FF48030FFF773FD18E0B048844219
:10C7F00009D101214804FFF76BFD00214FF40030FF
:10C80000FFF766FD0BE0AB48844208D101218804A4
:10C81000FFF75EFD00214FF48020FFF759FD10BDAA
:10C8200000220288944B98420ED0994B98420BD02C
:10C83000B0F1804F08D0914B984205D0904B984270
:10C8400002D0904B984204D14FF68F731A404B8818
:10C850001A438D4B984207D08C4B984204D04FF628
:10C86000FF431A40CB881A4302808B8883850B884C
:10C870000385814B98420BD0854B984208D08B4B57
:10C88000984205D08A4B984202D08A4B984201D1F7
:10C890000B7A038601238382704770B5002400223F
:10C8A0000023058C4FF6FE7635400584028C838884
:10C8B000048B4FF68F752C40B51E2C400D882C43F1
:10C8C000751E2A400D892A434D882A436A4DA84285
:10C8D0000BD06F4DA84208D0744DA84205D0744DBE
:10C8E000A84202D0734DA84213D14FF6F7752A40E3
:10C8F0004D892A434FF6FB752A408D882A434FF60F
:10C90000FF652B404FF6FF552B408D892B43CD897A
:10C910002B4383800483CD888586028470BD70B5E7
:10C92000002400220023058C4FF6EF763540058465
:10C93000028C8388048B48F6FF752C404FF6FF4528
:10C940002C400D884FF6FF7606EA05252C434FF65E
:10C95000DF752A400D8906EA05152A434D8806EA47
:10C9600005152A43444DA84202D0494DA8421DD185
:10C970004FF67F752A404D894FF6FF7606EA05157A
:10C980002A434FF6BF752A408D8806EA05152A43CB
:10C990004FF6FF352B404FF2FF752B408D8906EA8D
:10C9A00085052B43CD8906EA85052B4383800483C7
:10C9B000CD880587028470BD70B500240022002355
:10C9C000058C4FF6FF6635400584028C8388848B86
:10C9D0004FF68F752C404FF6FC752C400D882C437C
:10C9E0004FF6FF552A400D894FF6FF7606EA0525DA
:10C9F0002A434D8806EA05252A431F4DA84202D046
:10CA0000234DA8421DD14FF2FF752A404D894FF6A4
:10CA1000FF7606EA05252A434FF6FF352A408D8822
:10CA200006EA05252A434EF6FF752B404DF6FF75A5
:10CA30002B408D8906EA05152B43CD8906EA05159D
:10CA40002B4383808483CD888587028470BD70B535
:10CA5000002200230024058C4EF6FF763540058425
:10CA6000038C8488828B48F6FF752A404FF6FF4579
:10CA70002A400D8820E00000002C01400004004006
:10CA800000080040000C004000100040001400406E
:10CA900000340140004C014000500140005401406E
:10CAA00000180040001C00400020004000400140F1
:10CAB00000440140004801404FF6FF7606EA052594
:10CAC0002A434DF6FF752B400D8906EA05352B43A9
:10CAD0004D8806EA05352B43FA4DA84202D0FA4D9F
:10CAE000A84208D14BF6FF752C408D894FF6FF7692
:10CAF00006EA85152C4384808283CD88A0F84050B7
:10CB0000038470BD828B4FF2FF331A408283828B85
:10CB10004FF6FF7303EA01231A4382837047F0B58F
:10CB20000C461546002200210026078C4EF6FF7C9D
:10CB300007EA0C070784828B018C4FF6FF7707EA20
:10CB4000043640F6FF473A404FF6FF7707EA0527DD
:10CB50003A434FF6FF7707EA03373A43D94FB842D3
:10CB60000ED0D94FB8420BD0B0F1804F08D0D74F7C
:10CB7000B84205D0D64FB84202D0D64FB84206D1FF
:10CB80004DF6FF77394046F48057394305E047F6C4
:10CB9000FF57394044F48057394382830184F0BD04
:10CBA000828B4FF6F3731A408283828B0A4382830F
:10CBB0007047F0B50C461546002200210026078C70
:10CBC0004FF6FF6C07EA0C070784828B018C4FF647
:10CBD000FF7707EA04264FF60C773A404FF6FF77C7
:10CBE00007EA03172F433A43B64FB8420ED0B64F69
:10CBF000B8420BD0B0F1804F08D0B44FB84205D046
:10CC0000B34FB84202D0B34FB84206D14FF6FF57E8
:10CC1000394046F48077394305E04FF2FF573940F9
:10CC200044F48077394382830184F0BD028B4FF254
:10CC3000FF331A400283028B4FF6FF7303EA01238E
:10CC40001A4302837047F0B50C46154600220021B6
:10CC50000026078C4FF6EF7C07EA0C070784028B4F
:10CC6000018C4FF6FF7707EA041640F6FF473A407B
:10CC70004FF6FF7707EA03373A434FF6FF7707EAA5
:10CC800005273A438F4FB8420ED08F4FB8420BD092
:10CC9000B0F1804F08D08D4FB84205D08C4FB842CC
:10CCA00002D08C4FB84206D14FF6DF77394046F0BC
:10CCB0001007394305E04FF65F77394044F010071D
:10CCC000394302830184F0BD028B4FF6F3731A409F
:10CCD0000283028B0A4302837047F0B50C46154667
:10CCE00000220021068C4FF6FE773E400684028B20
:10CCF000018C4FF60C7632407E1C06EA03162E435A
:10CD00003243704EB0420ED06F4EB0420BD0B0F1F5
:10CD1000804F08D06D4EB04205D06D4EB04202D06B
:10CD20006C4EB04206D14FF6FD76314044F001061C
:10CD3000314305E04FF6F576314044F001063143CA
:10CD400002830184F0BD70B505460C465D488542FE
:10CD50000ED05D4885420BD0B5F1804F08D05B48BE
:10CD6000854205D05A48854202D05A48854200D1B2
:10CD700000E000BF208850B92389A2886188284636
:10CD8000FFF7ABFFE1882846FFF79EFF25E02088EC
:10CD900004280AD12389A28861882846FFF753FF17
:10CDA000E1882846FFF742FF17E0208808280AD1CB
:10CDB0002389A28861882846FFF7FBFEE188284680
:10CDC000FFF7EEFE09E02389A28861882846FFF775
:10CDD000A6FEE1882846FFF795FE70BD2DE9F041DB
:10CDE00005460C4600260127608808B9022600E0A7
:10CDF0000026A088012801D1022700E00127208811
:10CE0000A0B92389A28861882846FFF766FFE188D8
:10CE10002846FFF759FF23893A4631462846FFF74F
:10CE200012FFE1882846FFF701FF13E02389A2885B
:10CE300061882846FFF707FFE1882846FFF7F6FEDE
:10CE400023893A4631462846FFF747FFE1882846BE
:10CE5000FFF73AFFBDE8F0810A884B881A438B88B8
:10CE60001A43CB881A430B891A434B891A438B897F
:10CE70001A43A0F8442070474FF6FF7181800021CB
:10CE80000180C18041800172704700210180418092
:10CE90008180C180018141818181C18170470021F0
:10CEA00001804180012181800021C1800181704782
:10CEB0000021018041808180C18001814181818187
:10CEC00070470000002C0140003401400004004085
:10CED00000080040000C004021B1028842F001022D
:10CEE000028004E002884FF6FE731A400280704709
:10CEF00031B1B0F8442042F40042A0F8442005E0EB
:10CF0000B0F84420C2F30E02A0F8442070471AB1D2
:10CF100083890B43838102E083898B43838170473C
:10CF20008182704741EA0203A0F8483070471AB185
:10CF300083890B43838102E083898B43838170471C
:10CF400001894FF6F8721140018170470A460021AD
:10CF500001894FF68F73194011430181704730B535
:10CF600004460D4629462046FFF7F0FF208940F091
:10CF70000700208130BD2DE9F04104460D461646DC
:10CF80001F46602D06D13B46012231462046FFF761
:10CF90005AFE05E03B46012231462046FFF79DFE42
:10CFA00029462046FFF7D2FF208940F00700208164
:10CFB000BDE8F08130B50C4600210189C9B24FF6B9
:10CFC000FF7505EA0325154325432943018130BD3B
:10CFD0002DE9F04105460E46174698460024434683
:10CFE0003A4631462846FFF7E5FF2C894FF6F870A0
:10CFF000044044F007044FF68F70044044F070047E
:10D000002C81BDE8F081F0B504460D4616461F465A
:10D010003B46324629462046FFF7CCFF208940F4A4
:10D0200080402081F0BD0185828270470A46002140
:10D0300001884FF68F731940114301807047F0B596
:10D040000C4615461E460021002200230189028B52
:10D05000038C4FF6F877394021434FF6FC473A40AE
:10D0600040F201173A434FF6DD773B404FF6FF772A
:10D0700007EA06172F433B43018102830384F0BD77
:10D080000A460021018B4FF68F731940114301832B
:10D0900070470A460021018B48F6FF7319404FF68E
:10D0A000FF7303EA02231943018370470A460021F4
:10D0B000818B4FF68F7319401143818370470A4665
:10D0C0000021818B48F6FF7319404FF6FF7303EA86
:10D0D000022319438183704721B1028842F0800204
:10D0E000028004E002884FF67F731A400280704786
:10D0F00021B1828842F00402828004E082884FF6E7
:10D10000FB731A408280704721B1828842F0080286
:10D11000828004E082884FF6F7731A40828070475D
:10D1200021B1828842F00102828004E082884FF6B9
:10D13000FE731A40828070470A460021018B4FF629
:10D14000F77319401143018370470A460021018B90
:10D150004FF2FF7319404FF6FF7303EA022319439E
:10D16000018370470A460021818B4FF6F7731940FF
:10D170001143818370470A460021818B4FF2FF7370
:10D1800019404FF6FF7303EA022319438183704766
:10D190000A460021018B4FF6FB73194011430183AE
:10D1A00070470A460021018B4FF6FF3319404FF6B6
:10D1B000FF7303EA02231943018370470A460021E3
:10D1C000818B4FF6FB7319401143818370470A46E8
:10D1D0000021818B4FF6FF3319404FF6FF7303EAAE
:10D1E00002231943818370470A460021018B4FF6C1
:10D1F0007F7319401143018370470A460021018B58
:10D20000C1F30E014FF6FF7303EA022319430183B2
:10D2100070470A460021818B4FF67F7319401143F6
:10D22000818370470A460021818BC1F30E014FF6BE
:10D23000FF7303EA02231943818370470A460021E2
:10D24000018C4FF6FD7319401143018470470A4663
:10D250000021018C4FF6F773194011430184704788
:10D260000A460021018C4FF6DF7319404FF6FF7319
:10D2700003EA02131943018470470A460021018C16
:10D280004FF67F7319404FF6FF7303EA02131943F9
:10D29000018470470A460021018C4FF6FF53194064
:10D2A0004FF6FF7303EA02231943018470470A46CD
:10D2B0000021018C4FF2FF7319404FF6FF7303EA10
:10D2C00002231943018470470A460021018C4DF660
:10D2D000FF7319404FF6FF7303EA023319430184C9
:10D2E000704730B5002301248C40A3B2048C9C43CA
:10D2F0000484048C02FA01F5ADB22C43048430BDE1
:10D3000030B5002304248C40A3B2048C9C430484D5
:10D31000048C02FA01F5ADB22C43048430BD70B523
:10D320000346002000241846183001258D40ACB279
:10D330001D8CA5431D8409B1082909D100EB6100AA
:10D34000056825F0700505600568154305600EE069
:10D350000D1FC5F34E052844056825F4E04505601A
:10D3600005684FF6FF7606EA02263543056070BD74
:10D3700021B1028842F00202028004E002884FF6E6
:10D38000FD731A400280704721B1028842F0040206
:10D39000028004E002884FF6FB731A400280704757
:10D3A00021B1828842F08002828004E082884FF6B8
:10D3B0007F731A408280704702884FF6F7731A40D5
:10D3C000028002880A430280704782884FF68F737A
:10D3D0001A40828082880A438280704702894FF611
:10D3E000F8731A40028102890A4302817047028958
:10D3F0004FF67F731A40028102890A430281704707
:10D4000081847047818570478186704701877047A6
:10D4100081877047A0F84010704702884FF6FF439D
:10D420001A40028002880A43028070470146888EB3
:10D4300070470146088F70470146888F7047014644
:10D44000B1F8400070470146888C70470146088D4E
:10D45000704702460020138A0B4201D0012000E0F1
:10D4600000207047CA430282704730B50246002050
:10D4700000230024158A05EA0103958905EA0104C1
:10D4800013B10CB1012000E0002030BDCA4302827C
:10D490007047000010B50446FB48844209D10121C1
:10D4A0008803FEF715FF00214FF48040FEF710FFC0
:10D4B00032E0F648844209D101214804FEF715FF05
:10D4C00000214FF40030FEF710FF25E0F0488442C1
:10D4D00009D101218804FEF708FF00214FF48020C4
:10D4E000FEF703FF18E0EB48844209D10121C8048C
:10D4F000FEF7FBFE00214FF40020FEF7F6FE0BE0E6
:10D50000E548844208D101210805FEF7EEFE00211E
:10D510004FF48010FEF7E9FE10BD2DE9F04786B00C
:10D5200005460E460024A24600BFA1460027B0894A
:10D5300000B100BF2F462C8A4CF6FF700440F088E3
:10D5400004432C82AC894EF6F3100440B088318934
:10D550000843718908430443AC81AC8A4FF6FF400D
:10D560000440B0890443AC8201A8FEF72AFEC648F5
:10D57000874202D1DDF810A001E0DDF80CA0A889F7
:10D5800010F4004F08D00AEBCA0000EB0A10316813
:10D590004900B0FBF1F807E00AEBCA0000EB0A1003
:10D5A00031688900B0FBF1F86420B8FBF0F00401A9
:10D5B0002009642101FB1089A88910F4004F08D0CC
:10D5C000322000EBC900B0FBF1F000F0070004438B
:10D5D00008E0322000EB09106421B0FBF1F000F00C
:10D5E0000F0004432C8106B0BDE8F0874FF41651BC
:10D5F000016000218180C18001810C2141810021D5
:10D600008181704710B502460020108A4FF2FF0357
:10D6100018400B884C8823438C882343CC882343B1
:10D620001843108210BD0021018041808180C1809B
:10D63000704721B1828942F40052828104E08289DC
:10D640004DF6FF731A4082817047F0B503460024FF
:10D65000002600250020A1F510676A3F00D100BF19
:10D660001846C1F3421401F01F06012707FA06F518
:10D67000012C01D10C3004E0022C01D1103000E06B
:10D6800014301AB107682F43076002E00768AF4300
:10D690000760F0BD1AB1838A0B43838202E0838A5C
:10D6A0008B4383827047028A4FF6F0731A400282DE
:10D6B000028A0A430282704782894FF2FF731A403E
:10D6C000828182890A438281704721B1828942F036
:10D6D0000202828104E082894FF6FD731A40828142
:10D6E0007047028A4FF6DF731A400282028A0A43A9
:10D6F0000282704721B1028A42F48042028204E031
:10D70000028A4BF6FF731A4002827047C1F3080287
:10D710008280704701468888C0F30800704781897D
:10D7200041F0010181817047028BD2B20283028BEA
:10D7300042EA012202837047028B02F47F42028395
:10D74000028B0A430283704721B1828A42F0200291
:10D75000828204E0828A4FF6DF731A408282704729
:10D7600021B1828A42F01002828204E0828A4FF65E
:10D77000EF731A408282704721B1828A42F0080218
:10D78000828204E0828A4FF6F7731A4082827047E1
:10D7900021B1828942F40042828103E08289C2F38E
:10D7A0000E028281704721B1828A42F40062828235
:10D7B00004E0828A4FF2FF731A4082827047828AA5
:10D7C0004FF6FB731A408282828A0A438282704734
:10D7D00021B1828A42F00202828204E0828A4FF6FC
:10D7E000FD731A408282704702460020B1F5007F27
:10D7F00000D100BF13880B4201D0012000E00020BF
:10D80000704701F40072B2F5007F00D100BFCA4337
:10D810000280704770B502460024002300250020D6
:10D82000A1F510666A3E00D100BFC1F3421501F0B8
:10D830001F03012606FA03F3012D02D19689334016
:10D8400006E0022D02D1168A334001E0968A334069
:10D850000C12012606FA04F41688344013B10CB1F8
:10D86000012000E0002070BD10B500220023A1F5CA
:10D8700010646A3C00D100BF0A1201249440A3B294
:10D88000DC43048010BD000000380140004400402B
:10D8900000480040004C00400050004009488047CC
:10D8A00009480047FEE7FEE7FEE7FEE7FEE7FEE782
:10D8B000FEE7FEE7FEE7FEE704480549054A064B9A
:10D8C000704700008D95000831810008E07C002041
:10D8D000E0820020E07E0020E07E002008B50121EB
:10D8E0004020FEF7DBFC4FF6FF70ADF80000102083
:10D8F0008DF8030003208DF8020069466F48FEF79B
:10D9000017FABDF800106D48FEF7BFFA08BD6C4865
:10D910000088401C6A490880084600880A281BDBEA
:10D92000002008806748007818B901206549087010
:10D9300002E00020634908706248007830B962480C
:10D94000008820F400506049088005E05E480088A7
:10D9500040F400505C49088000205C4908703BE0BE
:10D960005B485A49097830F81100B0F5007F09DDAD
:10D97000564801780120884053490988814352481C
:10D98000018008E051480178012088404E4909880B
:10D9900008434D4908804E484C4909780B3130F80E
:10D9A0001100B0F5007F09DD48480178012088406A
:10D9B0004849098881434748018008E04348017885
:10D9C00001208840434909880843424908803F486C
:10D9D0000078401C3D4908703C4800780B28BFDBAC
:10D9E0003C48008840F400603A49088008460088B6
:10D9F00040F48050088038480078002804DD36481C
:10DA00000078401E3449087034480078002804DD4E
:10DA100032480078401E314908702F4800780028AD
:10DA200006DD2948008820F400602749088005E0C9
:10DA30002548008840F40060234908802748007882
:10DA4000002806DD2048008820F480501E49088008
:10DA500005E01D48008840F480501B49088070474D
:10DA600010B51F48007808B9012000E000201C49CB
:10DA700008700846007880B11648008820F480407D
:10DA8000144908800846008840F400400880084691
:10DA900001880A48FEF700FA0FE00B48008840F4BE
:10DAA0008040094908800846008820F4004008802A
:10DAB000084601880148FEF7EFF910BD0018014043
:10DAC00054000020500000204E000020560000208E
:10DAD000B25B00204C0000205100002052000020CA
